{
  "contractName": "Vote",
  "abi": [
    {
      "inputs": [],
      "stateMutability": "nonpayable",
      "type": "constructor"
    },
    {
      "anonymous": false,
      "inputs": [
        {
          "indexed": true,
          "internalType": "uint256",
          "name": "_candidateId",
          "type": "uint256"
        }
      ],
      "name": "votedEvent",
      "type": "event"
    },
    {
      "inputs": [
        {
          "internalType": "uint256",
          "name": "",
          "type": "uint256"
        }
      ],
      "name": "candidateArray",
      "outputs": [
        {
          "internalType": "uint256",
          "name": "id",
          "type": "uint256"
        },
        {
          "internalType": "string",
          "name": "name",
          "type": "string"
        },
        {
          "internalType": "uint256",
          "name": "voteCount",
          "type": "uint256"
        }
      ],
      "stateMutability": "view",
      "type": "function",
      "constant": true
    },
    {
      "inputs": [
        {
          "internalType": "uint256",
          "name": "",
          "type": "uint256"
        }
      ],
      "name": "candidates",
      "outputs": [
        {
          "internalType": "uint256",
          "name": "id",
          "type": "uint256"
        },
        {
          "internalType": "string",
          "name": "name",
          "type": "string"
        },
        {
          "internalType": "uint256",
          "name": "voteCount",
          "type": "uint256"
        }
      ],
      "stateMutability": "view",
      "type": "function",
      "constant": true
    },
    {
      "inputs": [],
      "name": "candidatesCount",
      "outputs": [
        {
          "internalType": "uint256",
          "name": "",
          "type": "uint256"
        }
      ],
      "stateMutability": "view",
      "type": "function",
      "constant": true
    },
    {
      "inputs": [],
      "name": "owner",
      "outputs": [
        {
          "internalType": "address",
          "name": "",
          "type": "address"
        }
      ],
      "stateMutability": "view",
      "type": "function",
      "constant": true
    },
    {
      "inputs": [
        {
          "internalType": "address",
          "name": "",
          "type": "address"
        }
      ],
      "name": "voters",
      "outputs": [
        {
          "internalType": "bool",
          "name": "",
          "type": "bool"
        }
      ],
      "stateMutability": "view",
      "type": "function",
      "constant": true
    },
    {
      "inputs": [
        {
          "internalType": "string",
          "name": "_name",
          "type": "string"
        }
      ],
      "name": "addCandidate",
      "outputs": [],
      "stateMutability": "nonpayable",
      "type": "function"
    },
    {
      "inputs": [
        {
          "internalType": "uint256",
          "name": "_candidateId",
          "type": "uint256"
        }
      ],
      "name": "vote",
      "outputs": [],
      "stateMutability": "nonpayable",
      "type": "function"
    },
    {
      "inputs": [],
      "name": "getCandidates",
      "outputs": [
        {
          "components": [
            {
              "internalType": "uint256",
              "name": "id",
              "type": "uint256"
            },
            {
              "internalType": "string",
              "name": "name",
              "type": "string"
            },
            {
              "internalType": "uint256",
              "name": "voteCount",
              "type": "uint256"
            }
          ],
          "internalType": "struct Vote.Candidate[]",
          "name": "",
          "type": "tuple[]"
        }
      ],
      "stateMutability": "view",
      "type": "function",
      "constant": true
    }
  ],
  "bytecode": "0x608060405234801562000010575f80fd5b503360045f6101000a81548173ffffffffffffffffffffffffffffffffffffffff021916908373ffffffffffffffffffffffffffffffffffffffff160217905550620000976040518060400160405280600e81526020017f53616d61727468204768616e7465000000000000000000000000000000000000815250620000e360201b60201c565b620000dd6040518060400160405280600d81526020017f4b616e6973686b204b756d617200000000000000000000000000000000000000815250620000e360201b60201c565b620005e7565b60045f9054906101000a900473ffffffffffffffffffffffffffffffffffffffff1673ffffffffffffffffffffffffffffffffffffffff163373ffffffffffffffffffffffffffffffffffffffff16146200013c575f80fd5b60035f81548092919062000150906200025c565b9190505550604051806060016040528060035481526020018281526020015f81525060015f60035481526020019081526020015f205f820151815f01556020820151816001019081620001a4919062000503565b50604082015181600201559050506002604051806060016040528060035481526020018381526020015f815250908060018154018082558091505060019003905f5260205f2090600302015f909190919091505f820151815f0155602082015181600101908162000216919062000503565b5060408201518160020155505050565b7f4e487b71000000000000000000000000000000000000000000000000000000005f52601160045260245ffd5b5f819050919050565b5f620002688262000253565b91507fffffffffffffffffffffffffffffffffffffffffffffffffffffffffffffffff82036200029d576200029c62000226565b5b600182019050919050565b5f81519050919050565b7f4e487b71000000000000000000000000000000000000000000000000000000005f52604160045260245ffd5b7f4e487b71000000000000000000000000000000000000000000000000000000005f52602260045260245ffd5b5f60028204905060018216806200032457607f821691505b6020821081036200033a5762000339620002df565b5b50919050565b5f819050815f5260205f209050919050565b5f6020601f8301049050919050565b5f82821b905092915050565b5f600883026200039e7fffffffffffffffffffffffffffffffffffffffffffffffffffffffffffffffff8262000361565b620003aa868362000361565b95508019841693508086168417925050509392505050565b5f819050919050565b5f620003eb620003e5620003df8462000253565b620003c2565b62000253565b9050919050565b5f819050919050565b6200040683620003cb565b6200041e6200041582620003f2565b8484546200036d565b825550505050565b5f90565b6200043462000426565b62000441818484620003fb565b505050565b5b8181101562000468576200045c5f826200042a565b60018101905062000447565b5050565b601f821115620004b757620004818162000340565b6200048c8462000352565b810160208510156200049c578190505b620004b4620004ab8562000352565b83018262000446565b50505b505050565b5f82821c905092915050565b5f620004d95f1984600802620004bc565b1980831691505092915050565b5f620004f38383620004c8565b9150826002028217905092915050565b6200050e82620002a8565b67ffffffffffffffff8111156200052a5762000529620002b2565b5b6200053682546200030c565b620005438282856200046c565b5f60209050601f83116001811462000579575f841562000564578287015190505b620005708582620004e6565b865550620005df565b601f198416620005898662000340565b5f5b82811015620005b2578489015182556001820191506020850194506020810190506200058b565b86831015620005d25784890151620005ce601f891682620004c8565b8355505b6001600288020188555050505b505050505050565b610f5380620005f55f395ff3fe608060405234801561000f575f80fd5b5060043610610086575f3560e01c806335a893a11161005957806335a893a114610114578063462e91ec146101465780638da5cb5b14610162578063a3ec138d1461018057610086565b80630121b93f1461008a57806306a49fce146100a65780632d35a8a2146100c45780633477ee2e146100e2575b5f80fd5b6100a4600480360381019061009f91906106f5565b6101b0565b005b6100ae6102c8565b6040516100bb91906108c1565b60405180910390f35b6100cc6103c7565b6040516100d991906108f0565b60405180910390f35b6100fc60048036038101906100f791906106f5565b6103cd565b60405161010b93929190610951565b60405180910390f35b61012e600480360381019061012991906106f5565b610479565b60405161013d93929190610951565b60405180910390f35b610160600480360381019061015b9190610ab9565b610534565b005b61016a610670565b6040516101779190610b3f565b60405180910390f35b61019a60048036038101906101959190610b82565b610695565b6040516101a79190610bc7565b60405180910390f35b5f803373ffffffffffffffffffffffffffffffffffffffff1673ffffffffffffffffffffffffffffffffffffffff1681526020019081526020015f205f9054906101000a900460ff1615610202575f80fd5b5f8111801561021357506003548111155b61021b575f80fd5b60015f803373ffffffffffffffffffffffffffffffffffffffff1673ffffffffffffffffffffffffffffffffffffffff1681526020019081526020015f205f6101000a81548160ff02191690831515021790555060015f8281526020019081526020015f206002015f81548092919061029390610c0d565b9190505550807ffff3c900d938d21d0990d786e819f29b8d05c1ef587b462b939609625b684b1660405160405180910390a250565b60606002805480602002602001604051908101604052809291908181526020015f905b828210156103be578382905f5260205f2090600302016040518060600160405290815f820154815260200160018201805461032590610c81565b80601f016020809104026020016040519081016040528092919081815260200182805461035190610c81565b801561039c5780601f106103735761010080835404028352916020019161039c565b820191905f5260205f20905b81548152906001019060200180831161037f57829003601f168201915b50505050508152602001600282015481525050815260200190600101906102eb565b50505050905090565b60035481565b6001602052805f5260405f205f91509050805f0154908060010180546103f290610c81565b80601f016020809104026020016040519081016040528092919081815260200182805461041e90610c81565b80156104695780601f1061044057610100808354040283529160200191610469565b820191905f5260205f20905b81548152906001019060200180831161044c57829003601f168201915b5050505050908060020154905083565b60028181548110610488575f80fd5b905f5260205f2090600302015f91509050805f0154908060010180546104ad90610c81565b80601f01602080910402602001604051908101604052809291908181526020018280546104d990610c81565b80156105245780601f106104fb57610100808354040283529160200191610524565b820191905f5260205f20905b81548152906001019060200180831161050757829003601f168201915b5050505050908060020154905083565b60045f9054906101000a900473ffffffffffffffffffffffffffffffffffffffff1673ffffffffffffffffffffffffffffffffffffffff163373ffffffffffffffffffffffffffffffffffffffff161461058c575f80fd5b60035f81548092919061059e90610c0d565b9190505550604051806060016040528060035481526020018281526020015f81525060015f60035481526020019081526020015f205f820151815f015560208201518160010190816105f09190610e4e565b50604082015181600201559050506002604051806060016040528060035481526020018381526020015f815250908060018154018082558091505060019003905f5260205f2090600302015f909190919091505f820151815f015560208201518160010190816106609190610e4e565b5060408201518160020155505050565b60045f9054906101000a900473ffffffffffffffffffffffffffffffffffffffff1681565b5f602052805f5260405f205f915054906101000a900460ff1681565b5f604051905090565b5f80fd5b5f80fd5b5f819050919050565b6106d4816106c2565b81146106de575f80fd5b50565b5f813590506106ef816106cb565b92915050565b5f6020828403121561070a576107096106ba565b5b5f610717848285016106e1565b91505092915050565b5f81519050919050565b5f82825260208201905092915050565b5f819050602082019050919050565b610752816106c2565b82525050565b5f81519050919050565b5f82825260208201905092915050565b5f5b8381101561078f578082015181840152602081019050610774565b5f8484015250505050565b5f601f19601f8301169050919050565b5f6107b482610758565b6107be8185610762565b93506107ce818560208601610772565b6107d78161079a565b840191505092915050565b5f606083015f8301516107f75f860182610749565b506020830151848203602086015261080f82826107aa565b91505060408301516108246040860182610749565b508091505092915050565b5f61083a83836107e2565b905092915050565b5f602082019050919050565b5f61085882610720565b610862818561072a565b9350836020820285016108748561073a565b805f5b858110156108af5784840389528151610890858261082f565b945061089b83610842565b925060208a01995050600181019050610877565b50829750879550505050505092915050565b5f6020820190508181035f8301526108d9818461084e565b905092915050565b6108ea816106c2565b82525050565b5f6020820190506109035f8301846108e1565b92915050565b5f82825260208201905092915050565b5f61092382610758565b61092d8185610909565b935061093d818560208601610772565b6109468161079a565b840191505092915050565b5f6060820190506109645f8301866108e1565b81810360208301526109768185610919565b905061098560408301846108e1565b949350505050565b5f80fd5b5f80fd5b7f4e487b71000000000000000000000000000000000000000000000000000000005f52604160045260245ffd5b6109cb8261079a565b810181811067ffffffffffffffff821117156109ea576109e9610995565b5b80604052505050565b5f6109fc6106b1565b9050610a0882826109c2565b919050565b5f67ffffffffffffffff821115610a2757610a26610995565b5b610a308261079a565b9050602081019050919050565b828183375f83830152505050565b5f610a5d610a5884610a0d565b6109f3565b905082815260208101848484011115610a7957610a78610991565b5b610a84848285610a3d565b509392505050565b5f82601f830112610aa057610a9f61098d565b5b8135610ab0848260208601610a4b565b91505092915050565b5f60208284031215610ace57610acd6106ba565b5b5f82013567ffffffffffffffff811115610aeb57610aea6106be565b5b610af784828501610a8c565b91505092915050565b5f73ffffffffffffffffffffffffffffffffffffffff82169050919050565b5f610b2982610b00565b9050919050565b610b3981610b1f565b82525050565b5f602082019050610b525f830184610b30565b92915050565b610b6181610b1f565b8114610b6b575f80fd5b50565b5f81359050610b7c81610b58565b92915050565b5f60208284031215610b9757610b966106ba565b5b5f610ba484828501610b6e565b91505092915050565b5f8115159050919050565b610bc181610bad565b82525050565b5f602082019050610bda5f830184610bb8565b92915050565b7f4e487b71000000000000000000000000000000000000000000000000000000005f52601160045260245ffd5b5f610c17826106c2565b91507fffffffffffffffffffffffffffffffffffffffffffffffffffffffffffffffff8203610c4957610c48610be0565b5b600182019050919050565b7f4e487b71000000000000000000000000000000000000000000000000000000005f52602260045260245ffd5b5f6002820490506001821680610c9857607f821691505b602082108103610cab57610caa610c54565b5b50919050565b5f819050815f5260205f209050919050565b5f6020601f8301049050919050565b5f82821b905092915050565b5f60088302610d0d7fffffffffffffffffffffffffffffffffffffffffffffffffffffffffffffffff82610cd2565b610d178683610cd2565b95508019841693508086168417925050509392505050565b5f819050919050565b5f610d52610d4d610d48846106c2565b610d2f565b6106c2565b9050919050565b5f819050919050565b610d6b83610d38565b610d7f610d7782610d59565b848454610cde565b825550505050565b5f90565b610d93610d87565b610d9e818484610d62565b505050565b5b81811015610dc157610db65f82610d8b565b600181019050610da4565b5050565b601f821115610e0657610dd781610cb1565b610de084610cc3565b81016020851015610def578190505b610e03610dfb85610cc3565b830182610da3565b50505b505050565b5f82821c905092915050565b5f610e265f1984600802610e0b565b1980831691505092915050565b5f610e3e8383610e17565b9150826002028217905092915050565b610e5782610758565b67ffffffffffffffff811115610e7057610e6f610995565b5b610e7a8254610c81565b610e85828285610dc5565b5f60209050601f831160018114610eb6575f8415610ea4578287015190505b610eae8582610e33565b865550610f15565b601f198416610ec486610cb1565b5f5b82811015610eeb57848901518255600182019150602085019450602081019050610ec6565b86831015610f085784890151610f04601f891682610e17565b8355505b6001600288020188555050505b50505050505056fea26469706673582212200acf20b54bf2da6bd758e881f629e289699eff91ba68534b77f45065cb8bddc464736f6c63430008150033",
  "immutableReferences": {},
  "source": "pragma solidity >=0.4.22 <0.9.0;\r\n\r\ncontract Vote {\r\n    \r\n    struct Candidate {\r\n        uint id;\r\n        string name;\r\n        uint voteCount;\r\n    }\r\n\r\n    mapping(address => bool) public voters;\r\n\r\n    mapping(uint => Candidate) public candidates;\r\n    Candidate[] public candidateArray; \r\n    uint public candidatesCount;\r\n\r\n    event votedEvent (\r\n        uint indexed _candidateId\r\n    );\r\n\r\n    address public owner;\r\n    constructor () {\r\n        owner = msg.sender;\r\n        addCandidate(\"Samarth Ghante\");\r\n        addCandidate(\"Kanishk Kumar\");\r\n    }\r\n\r\n    function addCandidate(string memory _name) public {\r\n        require(msg.sender == owner);\r\n        candidatesCount++;\r\n        candidates[candidatesCount] = Candidate(candidatesCount, _name, 0);\r\n        candidateArray.push(Candidate(candidatesCount, _name, 0)); \r\n    }\r\n\r\n    function vote (uint _candidateId) public {\r\n        require(!voters[msg.sender]);\r\n        require(_candidateId > 0 && _candidateId <= candidatesCount);\r\n        voters[msg.sender] = true;\r\n        candidates[_candidateId].voteCount ++;\r\n        emit votedEvent(_candidateId);\r\n    }\r\n\r\n    function getCandidates() public view returns (Candidate[] memory) {\r\n        return candidateArray;\r\n    }\r\n}\r\n",
  "sourcePath": "E:\\Tai_lieu_PTIT\\ATBM\\VotingDapp\\contracts\\Vote.sol",
  "compiler": {
    "name": "solc",
    "version": "0.8.21+commit.d9974bed.Emscripten.clang"
  },
  "schemaVersion": "3.4.16",
  "updatedAt": "2024-03-18T15:44:17.987Z",
  "networkType": "ethereum",
  "devdoc": {
    "kind": "dev",
    "methods": {},
    "version": 1
  },
  "userdoc": {
    "kind": "user",
    "methods": {},
    "version": 1
  }
}